:100000000C9435000C945D000C945D000C945D0024
:100010000C945D000C945D000C945D000C945D00EC
:100020000C945D000C945D000C945D000C945D00DC
:100030000C945D000C945D000C945D000C945D00CC
:100040000C944E050C945D000C94BE050C94980520
:100050000C945D000C945D000C945D000C945D00AC
:100060000C945D000C945D00F00511241FBECFEFD1
:10007000D8E0DEBFCDBF23E0A6E5B1E001C01D9210
:10008000AF3EB207E1F711E0A0E0B1E0E2EAF4E14F
:1000900002C005900D92A635B107D9F710E0C5E36F
:1000A000D0E004C02197FE010E944408C433D10768
:1000B000C9F70E942C060C944F0A0C9400003FB71D
:1000C000F8948091390390913A03A0913B03B09149
:1000D0003C0326B5A89B05C02F3F19F00196A11D32
:1000E000B11D3FBFBA2FA92F982F8827820F911DCE
:1000F000A11DB11DBC01CD0142E0660F771F881F15
:10010000991F4A95D1F7089580E991E00895CF921B
:10011000DF92EF92FF920F931F93CF93DF936C01C7
:100120007A018B01C0E0D0E0CE15DF0581F0D80167
:100130006D918D01D601ED91FC910190F081E02D42
:10014000C6010995892B11F02196EECF7E01C701DA
:10015000DF91CF911F910F91FF90EF90DF90CF90A3
:100160000895089580E090E00895FC01538D448D3A
:10017000252F30E0842F90E0821B930B541710F052
:10018000CF96089501970895FC01918D828D98175F
:1001900061F0828DDF01A80FB11D5D968C91928D6B
:1001A0009F5F9F73928F90E008958FEF9FEF089568
:1001B0002FB7F89480913D0390913E03A0913F03A7
:1001C000B09140032FBF8093490390934A03A093BB
:1001D0004B03B0934C0381E493E00E94C40097FF6B
:1001E00026C02FB7F89480913D0390913E03A091D3
:1001F0003F03B09140032FBF4091490350914A0300
:1002000060914B0370914C03841B950BA60BB70BAD
:100210004091450350914603609147037091480314
:1002200084179507A607B707B0F28FEF9FEF0895E1
:10023000FC01918D828D981731F0828DE80FF11DB0
:10024000858D90E008958FEF9FEF0895FC01918DCB
:10025000228D892F90E0805C9F4F821B91098F73C4
:100260009927089581E493E00E94260121E0892BDB
:1002700009F420E0822F0895FC01848DDF01A80F8E
:10028000B11DA35ABF4F2C91848D90E001968F73BE
:100290009927848FA689B7892C93A089B1898C91DD
:1002A000837080648C93938D848D981306C002882C
:1002B000F389E02D80818F7D80830895EF92FF92F6
:1002C0000F931F93CF93DF93EC0181E0888F9B8D79
:1002D0008C8D981305C0E889F989808185FD26C039
:1002E000F62E0B8D10E00F5F1F4F0F731127E02EBE
:1002F0008C8DE8120CC00FB607FCFACFE889F9899B
:10030000808185FFF5CFCE010E943C01F1CF8B8D1E
:10031000FE01E80FF11DE35AFF4FF0829FB7F894FA
:100320000B8FEA89FB89808180620AC09FB7F894AD
:10033000EE89FF896083E889F98980818370806410
:1003400080839FBF81E090E0DF91CF911F910F915B
:10035000FF90EF900895CF93DF93EC01888D882371
:10036000C9F0EA89FB89808185FD05C0A889B98922
:100370008C9186FD0FC00FB607FCF5CF808185FFFD
:10038000F2CFA889B9898C9185FFEDCFCE010E946B
:100390003C01E7CFDF91CF91089580E090E0892B79
:1003A00029F00E94320181110C94000008950F93EE
:1003B0001F93CF93DF93209157012F5F322F377018
:1003C0003093570120FF02C020E801C020E031FD3A
:1003D0002064347009F02062205FFC01EC01239658
:1003E00000E011E06485662331F070E0C8010E94EE
:1003F00015086F5F01C060E06187322F369F030EE2
:1004000030E0311D1124311102C0168202C031507A
:100410003683662311F0615061873196CE17DF076E
:1004200009F7DF91CF911F910F9108954F925F923D
:100430006F927F928F92AF92BF92CF92DF92EF92A4
:100440000F931F93CF93DF933C01EB010E945F005A
:10045000F30127853089621B730B6A307105B0F395
:10046000F894E881F9817BB178606BB1677F6BB9F3
:10047000CA848F812C2D281B822F2F83BF844A8012
:100480005B801D850C85DE841F5F0F5FD3949E818A
:100490003885A984EB844181D20120E0C32F522FFB
:1004A000322F3181442788943111380F08F43FEFFF
:1004B0008195889410FD430F4795889411FD430F53
:1004C0004795889412FD430F4795889413FD430F79
:1004D0004795889414FD430F4795889415FD430F65
:1004E0004795889416FD430F4795889417FD430F51
:1004F00047958894232F1111242F8C0D422F002C07
:100500007BB900C047FF6BB930812227889400C0B7
:1005100000C0002C6BB93111390F00C0002C7BB921
:1005200000C046FF6BB908F43FEF9195889400C076
:1005300000C0002C6BB900FD230F00C0002C7BB95C
:1005400000C045FF6BB92795889401FD230F00C0BB
:1005500000C0002C6BB92795889400C0002C7BB993
:1005600000C044FF6BB902FD230F2795889400C09B
:1005700000C0002C6BB903FD230F00C0002C7BB919
:1005800000C043FF6BB92795889404FD230F00C07A
:1005900000C0002C6BB92795889400C0002C7BB953
:1005A00000C042FF6BB905FD230F2795889400C05A
:1005B00000C0002C6BB906FD230F00C0002C7BB9D6
:1005C00000C041FF6BB92795889407FD230F00C039
:1005D00000C0002C6BB92795889400C0002C7BB913
:1005E00000C040FF6BB9432F0111422F9A0D00C08C
:1005F00000C0002C6BB900C000C0002C7BB900C04B
:1006000047FF6BB932812227889400C000C0002CBC
:100610006BB931113C0F00C0002C7BB900C046FF04
:100620006BB908F43FEFEB0DF11D00C000C0002CCA
:100630006BB9D0FC230F00C0002C7BB900C045FF74
:100640006BB927958894D1FC230F00C000C0002C03
:100650006BB92795889400C0002C7BB900C044FF7B
:100660006BB9D2FC230F2795889400C000C0002CE2
:100670006BB9D3FC230F00C0002C7BB900C043FF33
:100680006BB927958894D4FC230F00C000C0002CC0
:100690006BB92795889400C0002C7BB900C042FF3D
:1006A0006BB9D5FC230F2795889400C000C0002C9F
:1006B0006BB9D6FC230F00C0002C7BB900C041FFF2
:1006C0006BB927958894D7FC230F00C000C0002C7D
:1006D0006BB92795889400C0002C7BB900C040FFFF
:1006E0006BB9432FD110422FC19500C000C0002C20
:1006F0006BB9CE0D00C000C07BB900C047FF6BB91D
:1007000031812227889400C000C0002C6BB93111C0
:10071000380F00C0002C7BB900C046FF6BB908F44D
:100720003FEF8195889400C000C0002C6BB910FD8C
:10073000230F00C0002C7BB900C045FF6BB9279583
:10074000889411FD230F00C000C0002C6BB92795C1
:10075000889400C0002C7BB900C044FF6BB912FD27
:10076000230F2795889400C000C0002C6BB913FD9F
:10077000230F00C0002C7BB900C043FF6BB9279545
:10078000889414FD230F00C000C0002C6BB927957E
:10079000889400C0002C7BB900C042FF6BB915FDE6
:1007A000230F2795889400C000C0002C6BB916FD5C
:1007B000230F00C0002C7BB900C041FF6BB9279507
:1007C000889417FD230F00C000C0002C6BB927953B
:1007D000889400C0002C7BB900C040FF6BB9432F48
:1007E0001111422F8C0D00C000C0002C6BB9119765
:1007F00009F086CE20EE31E0D2010E942908DC010A
:10080000CB01F4E0B695A79597958795FA95D1F722
:1008100020E030E0B901EAE94E9E040C611D5E9EC5
:10082000600D711D1124650D711D860F971FA11D8F
:10083000B11D893E43E09407A105B10508F434C019
:10084000885E9340A109B10942E0B695A7959795B6
:1008500087954A95D1F747E0849F080E211D949F04
:10086000200D311D1124290F311D6091560170E0BA
:10087000860F971F820F931F40913D0350913E03B7
:1008800060913F0370914003292F3327420F531F7C
:10089000611D711D40933D0350933E0360933F03E0
:1008A000709340038093560178940E945F00F30197
:1008B000708B6787DF91CF911F910F91EF90DF9041
:1008C000CF90BF90AF908F907F906F905F904F9040
:1008D0000895539A08950F931F93CF93DF93CDB745
:1008E000DEB762970FB6F894DEBF0FBECDBF8C01A6
:1008F000F901DC011C968C917A8369835C834B83BC
:100900005E834D8390819D8791819E8792819F8791
:10091000813029F4CE0101960E94D70106C01C86C1
:100920001B861A86198618861F8283E0888B1A8A8E
:10093000198AD801ED91FC910484F585E02DBE0162
:100940006F5F7F4FC801099562960FB6F894DEBFBE
:100950000FBECDBFDF91CF911F910F9108950F93DF
:100960001F93CF93DF93CDB7DEB762970FB6F8949E
:10097000DEBF0FBECDBF8C01F901DC011C968C914E
:100980007A8369835C834B835E834D8390819D87EB
:1009900091819E8792819F87813029F4CE010196B3
:1009A0000E94D70106C01C861B861A8619861886E7
:1009B0001F82188A1A8A198AD801ED91FC91048441
:1009C000F585E02DBE016F5F7F4FC80109956296E6
:1009D0000FB6F894DEBF0FBECDBFDF91CF911F9150
:1009E0000F91089580E090E00895FC01858596853B
:1009F0000895CF93DF9300D000D000D0CDB7DEB7FD
:100A0000AB011C821D821E82DC01ED91FC910190E4
:100A1000F081E02D19821A821B829E012F5F3F4FC9
:100A2000BE016C5F7F4F099526960FB6F894DEBF26
:100A30000FBECDBFDF91CF91089542E050E06AE351
:100A400071E081E493E00C9487000E94310A0F93D7
:100A50001F93CF93DF93EC0188819981009729F050
:100A60002A813B812617370788F48B016F5F7F4F00
:100A70000E946B09009761F0998388831B830A8326
:100A80002C813D81232B11F4FC01108281E001C0F7
:100A900080E0DF91CF911F910F9108951F920F92E7
:100AA0000FB60F9211242F933F938F939F93AF9381
:100AB000BF9380913D0390913E03A0913F03B0917D
:100AC00040033091380323E0230F2D3720F40196A3
:100AD000A11DB11D05C026E8230F0296A11DB11D61
:100AE0002093380380933D0390933E03A0933F03EC
:100AF000B09340038091390390913A03A0913B0356
:100B0000B0913C030196A11DB11D809339039093D0
:100B10003A03A0933B03B0933C03BF91AF919F91E5
:100B20008F913F912F910F900FBE0F901F901895AE
:100B30001F920F920FB60F9211242F933F934F9352
:100B40005F936F937F938F939F93AF93BF93EF9335
:100B5000FF9381E493E00E943C01FF91EF91BF91EC
:100B6000AF919F918F917F916F915F914F913F9145
:100B70002F910F900FBE0F901F9018951F920F92FC
:100B80000FB60F9211242F938F939F93EF93FF93A0
:100B9000E0915103F09152038081E0915703F0916D
:100BA000580382FD12C0908180915A038F5F8F732A
:100BB00020915B03821751F0E0915A03F0E0EF5B64
:100BC000FC4F958F80935A0301C08081FF91EF9174
:100BD0009F918F912F910F900FBE0F901F9018959E
:100BE000E1E4F3E01382128288EE93E0A0E0B0E04B
:100BF00084839583A683B7838CE291E0918380837D
:100C000085EC90E09587848784EC90E097878687D1
:100C100080EC90E0918B808B81EC90E0938B828BC9
:100C200082EC90E0958B848B86EC90E0978B868BA2
:100C3000118E128E138E148EEEEDF3E08FEF808303
:100C400012821182148613868FEF9FEFDC01878357
:100C50009087A187B2870895CF93DF93CDB7DEB792
:100C600028970FB6F894DEBF0FBECDBF789484B539
:100C7000826084BD84B5816084BD85B5826085BD98
:100C800085B5816085BD80916E00816080936E0026
:100C90001092810080918100826080938100809118
:100CA00081008160809381008091800081608093C9
:100CB00080008091B10084608093B1008091B00089
:100CC00081608093B00080917A00846080937A0084
:100CD00080917A00826080937A0080917A008160AE
:100CE00080937A0080917A00806880937A001092D5
:100CF000C1000E945F004B015C0188EBC82E8BE0B5
:100D0000D82EE12CF12C0E945F00DC01CB01881968
:100D10009909AA09BB09883E9340A105B10598F33A
:100D200021E0C21AD108E108F10888EE880E83E0BC
:100D3000981EA11CB11CC114D104E104F10419F7DF
:100D4000E0915103F091520382E08083E0914D03E2
:100D5000F0914E031082E0914F03F09150038FEC1D
:100D6000808310925903E0915503F091560386E079
:100D70008083E0915303F0915403808180618083EC
:100D8000E0915303F0915403808188608083E09167
:100D90005303F0915403808180688083E091530372
:100DA000F091540380818F7D808348E050E06DE3B3
:100DB00071E081E493E00E9487000E941D0580910C
:100DC0006D01811145C010925F0110925E018FEF9D
:100DD0008093620180936301809364018093650135
:100DE000809366018093670181E08093680110928F
:100DF0006A01109269011092610110926001809164
:100E00005A0190915B01892B31F48CE591E090932C
:100E10005B0180935A01E0915801F091590130979C
:100E200021F08CE591E0958384838CE591E09093AB
:100E300059018093580110926C0110926B018AE164
:100E400091E090935D0180935C0181E080936D015E
:100E5000539A85E791E090935F0180935E0186E964
:100E600090E090936A01809369018091E1039091F1
:100E7000E203A091E303B091E403843C29E09207EC
:100E8000A105B10520F484EC99E0A0E0B0E08093E6
:100E9000E1039093E203A093E303B093E4038FEFA5
:100EA0008093620180EB8093630180EF8093640103
:100EB00082E38093DE031A8219821C821B821E82C7
:100EC0001D8260E070E0CE0101960E942705298115
:100ED0003A8181110DC02115310519F0C9010E9417
:100EE000E2081A8219821E821D821C821B8207C0A0
:100EF0001E821D826CE371E0C9010E94480A0E94B3
:100F0000D8000D811E8197FD19C08F8318860F5F51
:100F10001F4FB801CE0101960E942705882379F35F
:100F200029813A818D819E81BE01695F7F4F820F49
:100F3000931F0E94480A1E830D83E1CF02301105E2
:100F400020F0E981FA81309729F410923703E7E322
:100F5000F3E001C03196608181E493E00E945E017C
:100F60000E941D058D819E81892B91F066E471E0C0
:100F700089819A810E943F0A892B51F44DE050E00B
:100F800068E471E081E493E00E9487000E941D05FF
:100F900089819A810E94E2080E94CD018CCF2F9214
:100FA0003F924F925F926F927F928F929F92AF92F9
:100FB000BF92CF92DF92EF92FF920F931F93CF9346
:100FC000DF93CDB7DEB7CA1BDB0B0FB6F894DEBFDD
:100FD0000FBECDBF09942A88398848885F846E8403
:100FE0007D848C849B84AA84B984C884DF80EE804D
:100FF000FD800C811B81AA81B981CE0FD11D0FB656
:10100000F894DEBF0FBECDBFED010895A29FB001E1
:10101000B39FC001A39F700D811D1124911DB29F2C
:10102000700D811D1124911D089597FB072E16F454
:10103000009407D077FD09D00E94300807FC05D046
:101040003EF4909581959F4F0895709561957F4FDF
:1010500008950E940608B7FF0895821B930B089518
:10106000AA1BBB1B51E107C0AA1FBB1FA617B707CE
:1010700010F0A61BB70B881F991F5A95A9F78095EA
:101080009095BC01CD010895EE0FFF1F0590F491DE
:10109000E02D09940F931F93CF93DF938230910536
:1010A00010F482E090E0E091ED03F091EE0320E097
:1010B00030E0A0E0B0E0309719F140815181028129
:1010C000138148175907C8F08417950769F41097DA
:1010D00031F012960C93129713961C9327C000932D
:1010E000ED031093EE0322C02115310519F04217CC
:1010F000530718F49A01BD01EF01DF01F801DBCFBE
:1011000021153105F9F0281B390B2430310580F405
:101110008A819B816115710521F0FB019383828394
:1011200004C09093EE038093ED03FE01329644C019
:10113000FE01E20FF31F819391932250310939830D
:1011400028833AC02091EB033091EC03232B41F428
:1011500020910201309103013093EC032093EB03C3
:1011600020910001309101012115310541F42DB785
:101170003EB74091040150910501241B350BE091CD
:10118000EB03F091EC03E217F307A0F42E1B3F0BE7
:101190002817390778F0AC014E5F5F4F24173507E9
:1011A00048F04E0F5F1F5093EC034093EB03819385
:1011B000919302C0E0E0F0E0CF01DF91CF911F9169
:1011C0000F910895CF93DF93009709F481C0FC013C
:1011D000329713821282A091ED03B091EE03109723
:1011E00081F420813181820F931F2091EB03309194
:1011F000EC032817390751F5F093EC03E093EB0368
:1012000067C0ED0120E030E0CE17DF0740F44A81EF
:101210005B819E0141155105F1F0EA01F5CFD383C1
:10122000C28340815181840F951FC817D90759F493
:1012300088819981840F951F0296918380838A818A
:101240009B81938382832115310529F4F093EE036A
:10125000E093ED033DC0E901FB83EA834991599195
:10126000C40FD51FEC17FD0761F480819181840FB5
:10127000951F0296E90199838883828193819B83DC
:101280008A83E0E0F0E012968D919C91139700978D
:1012900019F0FD01DC01F7CF8D919C9111979D0113
:1012A0002E5F3F4F820F931F2091EB033091EC0391
:1012B0002817390769F4309729F41092EE03109239
:1012C000ED0302C013821282B093EC03A093EB03F0
:1012D000DF91CF910895A0E0B0E0E1E7F9E00C9450
:1012E000D307EC01009721F4CB010E944A08B4C057
:1012F000FC01E60FF71F9C0122503109E217F307AA
:1013000008F4A8C0D9010D911C9111970617170771
:10131000B0F00530110508F49BC0C801049786178A
:10132000970708F495C002501109061B170B01938B
:1013300011936D937C93CF010E94E20889C05B01F9
:10134000A01AB10A4C01800E911EA091ED03B0913C
:10135000EE03612C712CE12CF12C109709F446C09E
:101360008D919C911197A815B905B1F56C0142E0DA
:10137000C40ED11CCA14DB0478F14C018A189B08F6
:10138000640142E0C40ED11C1296BC9012971396D1
:10139000AC91B5E0CB16D10440F0B282A383918228
:1013A0008082D9016D937C9309C00E5F1F4F800F1F
:1013B000911FF90191838083EB2DFA2FE114F10441
:1013C00031F0D7011396FC93EE93129741C0F0933E
:1013D000EE03E093ED033CC06816790608F43C0187
:1013E0007D0112960D90BC91A02DB7CF8091EB039B
:1013F0009091EC0388169906E1F466167706C8F416
:101400008091000190910101009741F48DB79EB742
:101410004091040150910501841B950BE817F907D1
:10142000C8F4F093EC03E093EB03F901718360835C
:101430000FC0CB010E944A087C01009759F0A80117
:10144000BE010E94360ACE010E94E208C70104C014
:10145000CE0102C080E090E0CDB7DEB7EEE00C94A4
:10146000EF0781E090E0F8940C944F0AFB01DC0157
:1014700002C001900D9241505040D8F70895FB01F1
:10148000DC018D91019080190110D9F3990B089519
:10149000FB01DC0101900D920020E1F70895F89422
:0214A000FFCF7C
:1014A2000000EF038000000000002505250525054A
:1014B200F904F504F20400000000AF046B046904AF
:1014C200F904F50484001602000000005E018700A2
:1014D200B500AB012601C40018010D0A00535441A6
:1014E2005254494E470061004E494345204A4F42FB
:0614F200205445414D00AD
:00000001FF
